:100000000C9446000C9450000C9450000C9450003A
:100010000C9450000C9450000C9450000C94500020
:100020000C9450000C9450000C9450000C94500010
:100030000C9450000C9450000C9450000C94500000
:100040000C9450000C9450000C9450000C945000F0
:100050000C9450000C9450000C9450000C945000E0
:100060000C9450000C9450000C9450000C945000D0
:100070000C9450000C9450000C9450000C945000C0
:100080000C9450000C9450000C94500011241FBE8E
:10009000CFEFD0E4DEBFCDBF0E9452000C946500CC
:1000A0000C940000CF93DF93CDB7DEB784E290E0ED
:1000B0002FEFFC01208385E290E0FC01108285E2B5
:0E00C00090E02FE0FC012083FACFF894FFCFF0
:00000001FF
